{
  "_format": "hh-sol-artifact-1",
  "contractName": "BrokexBet",
  "sourceName": "contracts/BrokexBet.sol",
  "abi": [
    {
      "inputs": [
        {
          "internalType": "contract IERC20",
          "name": "_token",
          "type": "address"
        },
        {
          "internalType": "address",
          "name": "_oracleAddress",
          "type": "address"
        },
        {
          "internalType": "address",
          "name": "_adminAddress",
          "type": "address"
        },
        {
          "internalType": "address",
          "name": "_operatorAddress",
          "type": "address"
        },
        {
          "internalType": "uint256",
          "name": "_intervalSeconds",
          "type": "uint256"
        },
        {
          "internalType": "uint256",
          "name": "_bufferSeconds",
          "type": "uint256"
        },
        {
          "internalType": "uint256",
          "name": "_minBetAmount",
          "type": "uint256"
        },
        {
          "internalType": "uint256",
          "name": "_oracleUpdateAllowance",
          "type": "uint256"
        },
        {
          "internalType": "uint256",
          "name": "_treasuryFee",
          "type": "uint256"
        }
      ],
      "stateMutability": "nonpayable",
      "type": "constructor"
    },
    {
      "anonymous": false,
      "inputs": [
        {
          "indexed": true,
          "internalType": "address",
          "name": "sender",
          "type": "address"
        },
        {
          "indexed": true,
          "internalType": "uint256",
          "name": "epoch",
          "type": "uint256"
        },
        {
          "indexed": false,
          "internalType": "uint256",
          "name": "amount",
          "type": "uint256"
        }
      ],
      "name": "BetBear",
      "type": "event"
    },
    {
      "anonymous": false,
      "inputs": [
        {
          "indexed": true,
          "internalType": "address",
          "name": "sender",
          "type": "address"
        },
        {
          "indexed": true,
          "internalType": "uint256",
          "name": "epoch",
          "type": "uint256"
        },
        {
          "indexed": false,
          "internalType": "uint256",
          "name": "amount",
          "type": "uint256"
        }
      ],
      "name": "BetBull",
      "type": "event"
    },
    {
      "anonymous": false,
      "inputs": [
        {
          "indexed": true,
          "internalType": "address",
          "name": "sender",
          "type": "address"
        },
        {
          "indexed": true,
          "internalType": "uint256",
          "name": "epoch",
          "type": "uint256"
        },
        {
          "indexed": false,
          "internalType": "uint256",
          "name": "amount",
          "type": "uint256"
        }
      ],
      "name": "Claim",
      "type": "event"
    },
    {
      "anonymous": false,
      "inputs": [
        {
          "indexed": true,
          "internalType": "uint256",
          "name": "epoch",
          "type": "uint256"
        },
        {
          "indexed": true,
          "internalType": "uint256",
          "name": "roundId",
          "type": "uint256"
        },
        {
          "indexed": false,
          "internalType": "int256",
          "name": "price",
          "type": "int256"
        }
      ],
      "name": "EndRound",
      "type": "event"
    },
    {
      "anonymous": false,
      "inputs": [
        {
          "indexed": true,
          "internalType": "uint256",
          "name": "epoch",
          "type": "uint256"
        },
        {
          "indexed": true,
          "internalType": "uint256",
          "name": "roundId",
          "type": "uint256"
        },
        {
          "indexed": false,
          "internalType": "int256",
          "name": "price",
          "type": "int256"
        }
      ],
      "name": "LockRound",
      "type": "event"
    },
    {
      "anonymous": false,
      "inputs": [
        {
          "indexed": false,
          "internalType": "address",
          "name": "admin",
          "type": "address"
        }
      ],
      "name": "NewAdminAddress",
      "type": "event"
    },
    {
      "anonymous": false,
      "inputs": [
        {
          "indexed": false,
          "internalType": "uint256",
          "name": "bufferSeconds",
          "type": "uint256"
        },
        {
          "indexed": false,
          "internalType": "uint256",
          "name": "intervalSeconds",
          "type": "uint256"
        }
      ],
      "name": "NewBufferAndIntervalSeconds",
      "type": "event"
    },
    {
      "anonymous": false,
      "inputs": [
        {
          "indexed": true,
          "internalType": "uint256",
          "name": "epoch",
          "type": "uint256"
        },
        {
          "indexed": false,
          "internalType": "uint256",
          "name": "minBetAmount",
          "type": "uint256"
        }
      ],
      "name": "NewMinBetAmount",
      "type": "event"
    },
    {
      "anonymous": false,
      "inputs": [
        {
          "indexed": false,
          "internalType": "address",
          "name": "operator",
          "type": "address"
        }
      ],
      "name": "NewOperatorAddress",
      "type": "event"
    },
    {
      "anonymous": false,
      "inputs": [
        {
          "indexed": false,
          "internalType": "address",
          "name": "oracle",
          "type": "address"
        }
      ],
      "name": "NewOracle",
      "type": "event"
    },
    {
      "anonymous": false,
      "inputs": [
        {
          "indexed": false,
          "internalType": "uint256",
          "name": "oracleUpdateAllowance",
          "type": "uint256"
        }
      ],
      "name": "NewOracleUpdateAllowance",
      "type": "event"
    },
    {
      "anonymous": false,
      "inputs": [
        {
          "indexed": true,
          "internalType": "uint256",
          "name": "epoch",
          "type": "uint256"
        },
        {
          "indexed": false,
          "internalType": "uint256",
          "name": "treasuryFee",
          "type": "uint256"
        }
      ],
      "name": "NewTreasuryFee",
      "type": "event"
    },
    {
      "anonymous": false,
      "inputs": [
        {
          "indexed": true,
          "internalType": "address",
          "name": "previousOwner",
          "type": "address"
        },
        {
          "indexed": true,
          "internalType": "address",
          "name": "newOwner",
          "type": "address"
        }
      ],
      "name": "OwnershipTransferred",
      "type": "event"
    },
    {
      "anonymous": false,
      "inputs": [
        {
          "indexed": true,
          "internalType": "uint256",
          "name": "epoch",
          "type": "uint256"
        }
      ],
      "name": "Pause",
      "type": "event"
    },
    {
      "anonymous": false,
      "inputs": [
        {
          "indexed": false,
          "internalType": "address",
          "name": "account",
          "type": "address"
        }
      ],
      "name": "Paused",
      "type": "event"
    },
    {
      "anonymous": false,
      "inputs": [
        {
          "indexed": true,
          "internalType": "uint256",
          "name": "epoch",
          "type": "uint256"
        },
        {
          "indexed": false,
          "internalType": "uint256",
          "name": "rewardBaseCalAmount",
          "type": "uint256"
        },
        {
          "indexed": false,
          "internalType": "uint256",
          "name": "rewardAmount",
          "type": "uint256"
        },
        {
          "indexed": false,
          "internalType": "uint256",
          "name": "treasuryAmount",
          "type": "uint256"
        }
      ],
      "name": "RewardsCalculated",
      "type": "event"
    },
    {
      "anonymous": false,
      "inputs": [
        {
          "indexed": true,
          "internalType": "uint256",
          "name": "epoch",
          "type": "uint256"
        }
      ],
      "name": "StartRound",
      "type": "event"
    },
    {
      "anonymous": false,
      "inputs": [
        {
          "indexed": true,
          "internalType": "address",
          "name": "token",
          "type": "address"
        },
        {
          "indexed": false,
          "internalType": "uint256",
          "name": "amount",
          "type": "uint256"
        }
      ],
      "name": "TokenRecovery",
      "type": "event"
    },
    {
      "anonymous": false,
      "inputs": [
        {
          "indexed": false,
          "internalType": "uint256",
          "name": "amount",
          "type": "uint256"
        }
      ],
      "name": "TreasuryClaim",
      "type": "event"
    },
    {
      "anonymous": false,
      "inputs": [
        {
          "indexed": true,
          "internalType": "uint256",
          "name": "epoch",
          "type": "uint256"
        }
      ],
      "name": "Unpause",
      "type": "event"
    },
    {
      "anonymous": false,
      "inputs": [
        {
          "indexed": false,
          "internalType": "address",
          "name": "account",
          "type": "address"
        }
      ],
      "name": "Unpaused",
      "type": "event"
    },
    {
      "inputs": [],
      "name": "MAX_TREASURY_FEE",
      "outputs": [
        {
          "internalType": "uint256",
          "name": "",
          "type": "uint256"
        }
      ],
      "stateMutability": "view",
      "type": "function"
    },
    {
      "inputs": [],
      "name": "adminAddress",
      "outputs": [
        {
          "internalType": "address",
          "name": "",
          "type": "address"
        }
      ],
      "stateMutability": "view",
      "type": "function"
    },
    {
      "inputs": [
        {
          "internalType": "uint256",
          "name": "epoch",
          "type": "uint256"
        },
        {
          "internalType": "uint256",
          "name": "_amount",
          "type": "uint256"
        }
      ],
      "name": "betBear",
      "outputs": [],
      "stateMutability": "nonpayable",
      "type": "function"
    },
    {
      "inputs": [
        {
          "internalType": "uint256",
          "name": "epoch",
          "type": "uint256"
        },
        {
          "internalType": "uint256",
          "name": "_amount",
          "type": "uint256"
        }
      ],
      "name": "betBull",
      "outputs": [],
      "stateMutability": "nonpayable",
      "type": "function"
    },
    {
      "inputs": [],
      "name": "bufferSeconds",
      "outputs": [
        {
          "internalType": "uint256",
          "name": "",
          "type": "uint256"
        }
      ],
      "stateMutability": "view",
      "type": "function"
    },
    {
      "inputs": [
        {
          "internalType": "uint256[]",
          "name": "epochs",
          "type": "uint256[]"
        }
      ],
      "name": "claim",
      "outputs": [],
      "stateMutability": "nonpayable",
      "type": "function"
    },
    {
      "inputs": [],
      "name": "claimTreasury",
      "outputs": [],
      "stateMutability": "nonpayable",
      "type": "function"
    },
    {
      "inputs": [
        {
          "internalType": "uint256",
          "name": "epoch",
          "type": "uint256"
        },
        {
          "internalType": "address",
          "name": "user",
          "type": "address"
        }
      ],
      "name": "claimable",
      "outputs": [
        {
          "internalType": "bool",
          "name": "",
          "type": "bool"
        }
      ],
      "stateMutability": "view",
      "type": "function"
    },
    {
      "inputs": [],
      "name": "currentEpoch",
      "outputs": [
        {
          "internalType": "uint256",
          "name": "",
          "type": "uint256"
        }
      ],
      "stateMutability": "view",
      "type": "function"
    },
    {
      "inputs": [],
      "name": "executeRound",
      "outputs": [],
      "stateMutability": "nonpayable",
      "type": "function"
    },
    {
      "inputs": [],
      "name": "genesisLockOnce",
      "outputs": [
        {
          "internalType": "bool",
          "name": "",
          "type": "bool"
        }
      ],
      "stateMutability": "view",
      "type": "function"
    },
    {
      "inputs": [],
      "name": "genesisLockRound",
      "outputs": [],
      "stateMutability": "nonpayable",
      "type": "function"
    },
    {
      "inputs": [],
      "name": "genesisStartOnce",
      "outputs": [
        {
          "internalType": "bool",
          "name": "",
          "type": "bool"
        }
      ],
      "stateMutability": "view",
      "type": "function"
    },
    {
      "inputs": [],
      "name": "genesisStartRound",
      "outputs": [],
      "stateMutability": "nonpayable",
      "type": "function"
    },
    {
      "inputs": [
        {
          "internalType": "address",
          "name": "user",
          "type": "address"
        },
        {
          "internalType": "uint256",
          "name": "cursor",
          "type": "uint256"
        },
        {
          "internalType": "uint256",
          "name": "size",
          "type": "uint256"
        }
      ],
      "name": "getUserRounds",
      "outputs": [
        {
          "internalType": "uint256[]",
          "name": "",
          "type": "uint256[]"
        },
        {
          "components": [
            {
              "internalType": "enum BrokexBet.Position",
              "name": "position",
              "type": "uint8"
            },
            {
              "internalType": "uint256",
              "name": "amount",
              "type": "uint256"
            },
            {
              "internalType": "bool",
              "name": "claimed",
              "type": "bool"
            }
          ],
          "internalType": "struct BrokexBet.BetInfo[]",
          "name": "",
          "type": "tuple[]"
        },
        {
          "internalType": "uint256",
          "name": "",
          "type": "uint256"
        }
      ],
      "stateMutability": "view",
      "type": "function"
    },
    {
      "inputs": [
        {
          "internalType": "address",
          "name": "user",
          "type": "address"
        }
      ],
      "name": "getUserRoundsLength",
      "outputs": [
        {
          "internalType": "uint256",
          "name": "",
          "type": "uint256"
        }
      ],
      "stateMutability": "view",
      "type": "function"
    },
    {
      "inputs": [],
      "name": "intervalSeconds",
      "outputs": [
        {
          "internalType": "uint256",
          "name": "",
          "type": "uint256"
        }
      ],
      "stateMutability": "view",
      "type": "function"
    },
    {
      "inputs": [
        {
          "internalType": "uint256",
          "name": "",
          "type": "uint256"
        },
        {
          "internalType": "address",
          "name": "",
          "type": "address"
        }
      ],
      "name": "ledger",
      "outputs": [
        {
          "internalType": "enum BrokexBet.Position",
          "name": "position",
          "type": "uint8"
        },
        {
          "internalType": "uint256",
          "name": "amount",
          "type": "uint256"
        },
        {
          "internalType": "bool",
          "name": "claimed",
          "type": "bool"
        }
      ],
      "stateMutability": "view",
      "type": "function"
    },
    {
      "inputs": [],
      "name": "minBetAmount",
      "outputs": [
        {
          "internalType": "uint256",
          "name": "",
          "type": "uint256"
        }
      ],
      "stateMutability": "view",
      "type": "function"
    },
    {
      "inputs": [],
      "name": "operatorAddress",
      "outputs": [
        {
          "internalType": "address",
          "name": "",
          "type": "address"
        }
      ],
      "stateMutability": "view",
      "type": "function"
    },
    {
      "inputs": [],
      "name": "oracle",
      "outputs": [
        {
          "internalType": "contract AggregatorV3Interface",
          "name": "",
          "type": "address"
        }
      ],
      "stateMutability": "view",
      "type": "function"
    },
    {
      "inputs": [],
      "name": "oracleLatestRoundId",
      "outputs": [
        {
          "internalType": "uint256",
          "name": "",
          "type": "uint256"
        }
      ],
      "stateMutability": "view",
      "type": "function"
    },
    {
      "inputs": [],
      "name": "oracleUpdateAllowance",
      "outputs": [
        {
          "internalType": "uint256",
          "name": "",
          "type": "uint256"
        }
      ],
      "stateMutability": "view",
      "type": "function"
    },
    {
      "inputs": [],
      "name": "owner",
      "outputs": [
        {
          "internalType": "address",
          "name": "",
          "type": "address"
        }
      ],
      "stateMutability": "view",
      "type": "function"
    },
    {
      "inputs": [],
      "name": "pause",
      "outputs": [],
      "stateMutability": "nonpayable",
      "type": "function"
    },
    {
      "inputs": [],
      "name": "paused",
      "outputs": [
        {
          "internalType": "bool",
          "name": "",
          "type": "bool"
        }
      ],
      "stateMutability": "view",
      "type": "function"
    },
    {
      "inputs": [
        {
          "internalType": "address",
          "name": "_token",
          "type": "address"
        },
        {
          "internalType": "uint256",
          "name": "_amount",
          "type": "uint256"
        }
      ],
      "name": "recoverToken",
      "outputs": [],
      "stateMutability": "nonpayable",
      "type": "function"
    },
    {
      "inputs": [
        {
          "internalType": "uint256",
          "name": "epoch",
          "type": "uint256"
        },
        {
          "internalType": "address",
          "name": "user",
          "type": "address"
        }
      ],
      "name": "refundable",
      "outputs": [
        {
          "internalType": "bool",
          "name": "",
          "type": "bool"
        }
      ],
      "stateMutability": "view",
      "type": "function"
    },
    {
      "inputs": [],
      "name": "renounceOwnership",
      "outputs": [],
      "stateMutability": "nonpayable",
      "type": "function"
    },
    {
      "inputs": [
        {
          "internalType": "uint256",
          "name": "",
          "type": "uint256"
        }
      ],
      "name": "rounds",
      "outputs": [
        {
          "internalType": "uint256",
          "name": "epoch",
          "type": "uint256"
        },
        {
          "internalType": "uint256",
          "name": "startTimestamp",
          "type": "uint256"
        },
        {
          "internalType": "uint256",
          "name": "lockTimestamp",
          "type": "uint256"
        },
        {
          "internalType": "uint256",
          "name": "closeTimestamp",
          "type": "uint256"
        },
        {
          "internalType": "int256",
          "name": "lockPrice",
          "type": "int256"
        },
        {
          "internalType": "int256",
          "name": "closePrice",
          "type": "int256"
        },
        {
          "internalType": "uint256",
          "name": "lockOracleId",
          "type": "uint256"
        },
        {
          "internalType": "uint256",
          "name": "closeOracleId",
          "type": "uint256"
        },
        {
          "internalType": "uint256",
          "name": "totalAmount",
          "type": "uint256"
        },
        {
          "internalType": "uint256",
          "name": "bullAmount",
          "type": "uint256"
        },
        {
          "internalType": "uint256",
          "name": "bearAmount",
          "type": "uint256"
        },
        {
          "internalType": "uint256",
          "name": "rewardBaseCalAmount",
          "type": "uint256"
        },
        {
          "internalType": "uint256",
          "name": "rewardAmount",
          "type": "uint256"
        },
        {
          "internalType": "bool",
          "name": "oracleCalled",
          "type": "bool"
        }
      ],
      "stateMutability": "view",
      "type": "function"
    },
    {
      "inputs": [
        {
          "internalType": "address",
          "name": "_adminAddress",
          "type": "address"
        }
      ],
      "name": "setAdmin",
      "outputs": [],
      "stateMutability": "nonpayable",
      "type": "function"
    },
    {
      "inputs": [
        {
          "internalType": "uint256",
          "name": "_bufferSeconds",
          "type": "uint256"
        },
        {
          "internalType": "uint256",
          "name": "_intervalSeconds",
          "type": "uint256"
        }
      ],
      "name": "setBufferAndIntervalSeconds",
      "outputs": [],
      "stateMutability": "nonpayable",
      "type": "function"
    },
    {
      "inputs": [
        {
          "internalType": "uint256",
          "name": "_minBetAmount",
          "type": "uint256"
        }
      ],
      "name": "setMinBetAmount",
      "outputs": [],
      "stateMutability": "nonpayable",
      "type": "function"
    },
    {
      "inputs": [
        {
          "internalType": "address",
          "name": "_operatorAddress",
          "type": "address"
        }
      ],
      "name": "setOperator",
      "outputs": [],
      "stateMutability": "nonpayable",
      "type": "function"
    },
    {
      "inputs": [
        {
          "internalType": "address",
          "name": "_oracle",
          "type": "address"
        }
      ],
      "name": "setOracle",
      "outputs": [],
      "stateMutability": "nonpayable",
      "type": "function"
    },
    {
      "inputs": [
        {
          "internalType": "uint256",
          "name": "_oracleUpdateAllowance",
          "type": "uint256"
        }
      ],
      "name": "setOracleUpdateAllowance",
      "outputs": [],
      "stateMutability": "nonpayable",
      "type": "function"
    },
    {
      "inputs": [
        {
          "internalType": "uint256",
          "name": "_treasuryFee",
          "type": "uint256"
        }
      ],
      "name": "setTreasuryFee",
      "outputs": [],
      "stateMutability": "nonpayable",
      "type": "function"
    },
    {
      "inputs": [],
      "name": "token",
      "outputs": [
        {
          "internalType": "contract IERC20",
          "name": "",
          "type": "address"
        }
      ],
      "stateMutability": "view",
      "type": "function"
    },
    {
      "inputs": [
        {
          "internalType": "address",
          "name": "newOwner",
          "type": "address"
        }
      ],
      "name": "transferOwnership",
      "outputs": [],
      "stateMutability": "nonpayable",
      "type": "function"
    },
    {
      "inputs": [],
      "name": "treasuryAmount",
      "outputs": [
        {
          "internalType": "uint256",
          "name": "",
          "type": "uint256"
        }
      ],
      "stateMutability": "view",
      "type": "function"
    },
    {
      "inputs": [],
      "name": "treasuryFee",
      "outputs": [
        {
          "internalType": "uint256",
          "name": "",
          "type": "uint256"
        }
      ],
      "stateMutability": "view",
      "type": "function"
    },
    {
      "inputs": [],
      "name": "unpause",
      "outputs": [],
      "stateMutability": "nonpayable",
      "type": "function"
    },
    {
      "inputs": [
        {
          "internalType": "address",
          "name": "",
          "type": "address"
        },
        {
          "internalType": "uint256",
          "name": "",
          "type": "uint256"
        }
      ],
      "name": "userRounds",
      "outputs": [
        {
          "internalType": "uint256",
          "name": "",
          "type": "uint256"
        }
      ],
      "stateMutability": "view",
      "type": "function"
    }
  ],
  "bytecode": "0x60a06040526002805461ffff60a01b191690553480156200001f57600080fd5b506040516200568f3803806200568f833981016040819052620000429162000171565b6200004d3362000121565b6000805460ff60a01b19169055600180556103e8811115620000b55760405162461bcd60e51b815260206004820152601560248201527f54726561737572792066656520746f6f20686967680000000000000000000000604482015260640160405180910390fd5b60609890981b6001600160601b031916608052600280546001600160a01b03199081166001600160a01b03998a161790915560038054821697891697909717909655600480549096169490961693909317909355600655600591909155600755600c5560085562000224565b600080546001600160a01b038381166001600160a01b0319831681178455604051919092169283917f8be0079c531659141344cd1fd0a4f28419497f9722a3daafe3b4186f6b6457e09190a35050565b60008060008060008060008060006101208a8c03121562000190578485fd5b89516200019d816200020b565b60208b0151909950620001b0816200020b565b60408b0151909850620001c3816200020b565b60608b0151909750620001d6816200020b565b8096505060808a0151945060a08a0151935060c08a0151925060e08a015191506101008a015190509295985092959850929598565b6001600160a01b03811681146200022157600080fd5b50565b60805160601c615429620002666000396000818161073c0152818161089d01528181610cd3015281816111ad01528181611e7c015261351001526154296000f3fe608060405234801561001057600080fd5b50600436106102e85760003560e01c80637d1cd04f11610191578063cf2f5039116100e3578063f2b3c80911610097578063fa968eea11610071578063fa968eea1461072e578063fc0c546a14610737578063fc6f94681461075e57600080fd5b8063f2b3c809146106ec578063f2fde38b146106f5578063f7fdec281461070857600080fd5b8063dd1f7596116100c8578063dd1f7596146106c7578063eaba2361146106da578063ec324703146106e357600080fd5b8063cf2f5039146106ac578063d9d55eac146106bf57600080fd5b80638da5cb5b11610145578063b29a81401161011f578063b29a81401461067d578063b3ab15fb14610690578063cc32d176146106a357600080fd5b80638da5cb5b1461062a578063951fd60014610648578063a0c7f71c1461066a57600080fd5b80638456cb59116101765780638456cb5914610527578063890dc7661461052f5780638c65c81f1461054257600080fd5b80637d1cd04f146104fe5780637dc0d1d01461050757600080fd5b8063605540111161024a5780637285c58b116101fe5780637adbf973116101d85780637adbf973146104d05780637b3205f5146104e35780637bf41254146104eb57600080fd5b80637285c58b1461046657806376671808146104b457806377e741c7146104bd57600080fd5b80636c1885931161022f5780636c18859314610438578063704b6c021461044b578063715018a61461045e57600080fd5b8063605540111461041c5780636ba4c1381461042557600080fd5b8063368acb09116102a15780633f4ba83a116102865780633f4ba83a146103e9578063452fd75a146103f15780635c975abb146103f957600080fd5b8063368acb09146103cd5780633923e1b4146103d657600080fd5b80630f74174f116102d25780630f74174f1461030a578063127effb214610344578063273867d41461038957600080fd5b80623bdc74146102ed5780630e89e5a4146102f7575b600080fd5b6102f561077e565b005b6102f56103053660046150dc565b610900565b60025461032f9074010000000000000000000000000000000000000000900460ff1681565b60405190151581526020015b60405180910390f35b6004546103649073ffffffffffffffffffffffffffffffffffffffff1681565b60405173ffffffffffffffffffffffffffffffffffffffff909116815260200161033b565b6103bf610397366004614f94565b73ffffffffffffffffffffffffffffffffffffffff166000908152600f602052604090205490565b60405190815260200161033b565b6103bf60095481565b6102f56103e43660046150dc565b610dda565b6102f56112a2565b6102f5611427565b60005474010000000000000000000000000000000000000000900460ff1661032f565b6103bf600c5481565b6102f5610433366004615009565b611637565b6102f5610446366004615099565b611eac565b6102f5610459366004614f94565b612057565b6102f56121cf565b6104a56104743660046150b1565b600d60209081526000928352604080842090915290825290208054600182015460029092015460ff91821692911683565b60405161033b93929190615245565b6103bf600a5481565b6102f56104cb366004615099565b61225c565b6102f56104de366004614f94565b612405565b6102f56126a3565b61032f6104f93660046150b1565b612937565b6103bf60065481565b6002546103649073ffffffffffffffffffffffffffffffffffffffff1681565b6102f5612b02565b6102f561053d3660046150dc565b612c60565b6105c0610550366004615099565b600e60205260009081526040902080546001820154600283015460038401546004850154600586015460068701546007880154600889015460098a0154600a8b0154600b8c0154600c8d0154600d909d01549b9c9a9b999a98999798969795969495939492939192909160ff168e565b604080519e8f5260208f019d909d529b8d019a909a5260608c019890985260808b019690965260a08a019490945260c089019290925260e088015261010087015261012086015261014085015261016084015261018083015215156101a08201526101c00161033b565b60005473ffffffffffffffffffffffffffffffffffffffff16610364565b61065b610656366004614fd7565b612e3b565b60405161033b939291906151a3565b61032f6106783660046150b1565b61321c565b6102f561068b366004614fae565b61348d565b6102f561069e366004614f94565b61365f565b6103bf60085481565b6102f56106ba366004615099565b6137d0565b6102f561390a565b6103bf6106d5366004614fae565b613c00565b6103bf60055481565b6103bf600b5481565b6103bf6103e881565b6102f5610703366004614f94565b613c31565b60025461032f907501000000000000000000000000000000000000000000900460ff1681565b6103bf60075481565b6103647f000000000000000000000000000000000000000000000000000000000000000081565b6003546103649073ffffffffffffffffffffffffffffffffffffffff1681565b600260015414156107f0576040517f08c379a000000000000000000000000000000000000000000000000000000000815260206004820152601f60248201527f5265656e7472616e637947756172643a207265656e7472616e742063616c6c0060448201526064015b60405180910390fd5b600260015560035473ffffffffffffffffffffffffffffffffffffffff163314610876576040517f08c379a000000000000000000000000000000000000000000000000000000000815260206004820152600960248201527f4e6f742061646d696e000000000000000000000000000000000000000000000060448201526064016107e7565b6009805460009091556003546108c69073ffffffffffffffffffffffffffffffffffffffff7f00000000000000000000000000000000000000000000000000000000000000008116911683613d61565b6040518181527fb9197c6b8e21274bd1e2d9c956a88af5cfee510f630fab3f046300f88b4223619060200160405180910390a15060018055565b60005474010000000000000000000000000000000000000000900460ff1615610985576040517f08c379a000000000000000000000000000000000000000000000000000000000815260206004820152601060248201527f5061757361626c653a207061757365640000000000000000000000000000000060448201526064016107e7565b600260015414156109f2576040517f08c379a000000000000000000000000000000000000000000000000000000000815260206004820152601f60248201527f5265656e7472616e637947756172643a207265656e7472616e742063616c6c0060448201526064016107e7565b6002600155333b15610a60576040517f08c379a000000000000000000000000000000000000000000000000000000000815260206004820152601460248201527f436f6e7472616374206e6f7420616c6c6f77656400000000000000000000000060448201526064016107e7565b333214610ac9576040517f08c379a000000000000000000000000000000000000000000000000000000000815260206004820152601a60248201527f50726f787920636f6e7472616374206e6f7420616c6c6f77656400000000000060448201526064016107e7565b600a548214610b34576040517f08c379a000000000000000000000000000000000000000000000000000000000815260206004820152601560248201527f42657420697320746f6f206561726c792f6c617465000000000000000000000060448201526064016107e7565b610b3d82613e3a565b610ba3576040517f08c379a000000000000000000000000000000000000000000000000000000000815260206004820152601260248201527f526f756e64206e6f74206265747461626c65000000000000000000000000000060448201526064016107e7565b600754811015610c35576040517f08c379a000000000000000000000000000000000000000000000000000000000815260206004820152602c60248201527f42657420616d6f756e74206d7573742062652067726561746572207468616e2060448201527f6d696e426574416d6f756e74000000000000000000000000000000000000000060648201526084016107e7565b6000828152600d6020908152604080832033845290915290206001015415610cb9576040517f08c379a000000000000000000000000000000000000000000000000000000000815260206004820152601b60248201527f43616e206f6e6c7920626574206f6e63652070657220726f756e64000000000060448201526064016107e7565b610cfb73ffffffffffffffffffffffffffffffffffffffff7f000000000000000000000000000000000000000000000000000000000000000016333084613ea5565b6000828152600e602052604090206008810154829190610d1c9083906152ba565b6008820155600a810154610d319083906152ba565b600a8201556000848152600d602090815260408083203380855290835281842080547fffffffffffffffffffffffffffffffffffffffffffffffffffffffffffffff001660019081178255808201889055600f855283862080549182018155865294849020909401889055905185815287927f0d8c1fe3e67ab767116a81f122b83c2557a8c2564019cb7c4f83de1aeb1f1f0d91015b60405180910390a3505060018055505050565b60005474010000000000000000000000000000000000000000900460ff1615610e5f576040517f08c379a000000000000000000000000000000000000000000000000000000000815260206004820152601060248201527f5061757361626c653a207061757365640000000000000000000000000000000060448201526064016107e7565b60026001541415610ecc576040517f08c379a000000000000000000000000000000000000000000000000000000000815260206004820152601f60248201527f5265656e7472616e637947756172643a207265656e7472616e742063616c6c0060448201526064016107e7565b6002600155333b15610f3a576040517f08c379a000000000000000000000000000000000000000000000000000000000815260206004820152601460248201527f436f6e7472616374206e6f7420616c6c6f77656400000000000000000000000060448201526064016107e7565b333214610fa3576040517f08c379a000000000000000000000000000000000000000000000000000000000815260206004820152601a60248201527f50726f787920636f6e7472616374206e6f7420616c6c6f77656400000000000060448201526064016107e7565b600a54821461100e576040517f08c379a000000000000000000000000000000000000000000000000000000000815260206004820152601560248201527f42657420697320746f6f206561726c792f6c617465000000000000000000000060448201526064016107e7565b61101782613e3a565b61107d576040517f08c379a000000000000000000000000000000000000000000000000000000000815260206004820152601260248201527f526f756e64206e6f74206265747461626c65000000000000000000000000000060448201526064016107e7565b60075481101561110f576040517f08c379a000000000000000000000000000000000000000000000000000000000815260206004820152602c60248201527f42657420616d6f756e74206d7573742062652067726561746572207468616e2060448201527f6d696e426574416d6f756e74000000000000000000000000000000000000000060648201526084016107e7565b6000828152600d6020908152604080832033845290915290206001015415611193576040517f08c379a000000000000000000000000000000000000000000000000000000000815260206004820152601b60248201527f43616e206f6e6c7920626574206f6e63652070657220726f756e64000000000060448201526064016107e7565b6111d573ffffffffffffffffffffffffffffffffffffffff7f000000000000000000000000000000000000000000000000000000000000000016333084613ea5565b6000828152600e6020526040902060088101548291906111f69083906152ba565b6008820155600981015461120b9083906152ba565b60098201556000848152600d602090815260408083203380855290835281842080547fffffffffffffffffffffffffffffffffffffffffffffffffffffffffffffff001681556001808201889055600f855283862080549182018155865294849020909401889055905185815287927f438122d8cff518d18388099a5181f0d17a12b4f1b55faedf6e4a6acee0060c129101610dc7565b60005474010000000000000000000000000000000000000000900460ff16611326576040517f08c379a000000000000000000000000000000000000000000000000000000000815260206004820152601460248201527f5061757361626c653a206e6f742070617573656400000000000000000000000060448201526064016107e7565b60035473ffffffffffffffffffffffffffffffffffffffff16331480611363575060045473ffffffffffffffffffffffffffffffffffffffff1633145b6113c9576040517f08c379a000000000000000000000000000000000000000000000000000000000815260206004820152601260248201527f4e6f74206f70657261746f722f61646d696e000000000000000000000000000060448201526064016107e7565b600280547fffffffffffffffffffff0000ffffffffffffffffffffffffffffffffffffffff1690556113f9613f09565b600a546040517faaa520fdd7d2c83061d632fa017b0432407e798818af63ea908589fceda39ab790600090a2565b60005474010000000000000000000000000000000000000000900460ff16156114ac576040517f08c379a000000000000000000000000000000000000000000000000000000000815260206004820152601060248201527f5061757361626c653a207061757365640000000000000000000000000000000060448201526064016107e7565b60045473ffffffffffffffffffffffffffffffffffffffff16331461152d576040517f08c379a000000000000000000000000000000000000000000000000000000000815260206004820152600c60248201527f4e6f74206f70657261746f72000000000000000000000000000000000000000060448201526064016107e7565b6002547501000000000000000000000000000000000000000000900460ff16156115d9576040517f08c379a000000000000000000000000000000000000000000000000000000000815260206004820152602360248201527f43616e206f6e6c792072756e2067656e657369735374617274526f756e64206f60448201527f6e6365000000000000000000000000000000000000000000000000000000000060648201526084016107e7565b600a546115e79060016152ba565b600a8190556115f590614002565b600280547fffffffffffffffffffff00ffffffffffffffffffffffffffffffffffffffffff167501000000000000000000000000000000000000000000179055565b600260015414156116a4576040517f08c379a000000000000000000000000000000000000000000000000000000000815260206004820152601f60248201527f5265656e7472616e637947756172643a207265656e7472616e742063616c6c0060448201526064016107e7565b6002600155333b15611712576040517f08c379a000000000000000000000000000000000000000000000000000000000815260206004820152601460248201527f436f6e7472616374206e6f7420616c6c6f77656400000000000000000000000060448201526064016107e7565b33321461177b576040517f08c379a000000000000000000000000000000000000000000000000000000000815260206004820152601a60248201527f50726f787920636f6e7472616374206e6f7420616c6c6f77656400000000000060448201526064016107e7565b6000805b82811015611e5b57600e60008585848181106117c4577f4e487b7100000000000000000000000000000000000000000000000000000000600052603260045260246000fd5b9050602002013581526020019081526020016000206001015460001415611847576040517f08c379a000000000000000000000000000000000000000000000000000000000815260206004820152601560248201527f526f756e6420686173206e6f742073746172746564000000000000000000000060448201526064016107e7565b600e6000858584818110611884577f4e487b7100000000000000000000000000000000000000000000000000000000600052603260045260246000fd5b905060200201358152602001908152602001600020600301544211611905576040517f08c379a000000000000000000000000000000000000000000000000000000000815260206004820152601360248201527f526f756e6420686173206e6f7420656e6465640000000000000000000000000060448201526064016107e7565b6000600e6000868685818110611944577f4e487b7100000000000000000000000000000000000000000000000000000000600052603260045260246000fd5b60209081029290920135835250810191909152604001600020600d015460ff1615611bd2576119b28585848181106119a5577f4e487b7100000000000000000000000000000000000000000000000000000000600052603260045260246000fd5b905060200201353361321c565b611a18576040517f08c379a000000000000000000000000000000000000000000000000000000000815260206004820152601660248201527f4e6f7420656c696769626c6520666f7220636c61696d0000000000000000000060448201526064016107e7565b6000600e6000878786818110611a57577f4e487b7100000000000000000000000000000000000000000000000000000000600052603260045260246000fd5b905060200201358152602001908152602001600020604051806101c001604052908160008201548152602001600182015481526020016002820154815260200160038201548152602001600482015481526020016005820154815260200160068201548152602001600782015481526020016008820154815260200160098201548152602001600a8201548152602001600b8201548152602001600c8201548152602001600d820160009054906101000a900460ff1615151515815250509050806101600151816101800151600d6000898988818110611b60577f4e487b7100000000000000000000000000000000000000000000000000000000600052603260045260246000fd5b90506020020135815260200190815260200160002060003373ffffffffffffffffffffffffffffffffffffffff1673ffffffffffffffffffffffffffffffffffffffff16815260200190815260200160002060010154611bc0919061530b565b611bca91906152d2565b915050611d17565b611c1b858584818110611c0e577f4e487b7100000000000000000000000000000000000000000000000000000000600052603260045260246000fd5b9050602002013533612937565b611c81576040517f08c379a000000000000000000000000000000000000000000000000000000000815260206004820152601760248201527f4e6f7420656c696769626c6520666f7220726566756e6400000000000000000060448201526064016107e7565b600d6000868685818110611cbe577f4e487b7100000000000000000000000000000000000000000000000000000000600052603260045260246000fd5b90506020020135815260200190815260200160002060003373ffffffffffffffffffffffffffffffffffffffff1673ffffffffffffffffffffffffffffffffffffffff1681526020019081526020016000206001015490505b6001600d6000878786818110611d56577f4e487b7100000000000000000000000000000000000000000000000000000000600052603260045260246000fd5b602090810292909201358352508181019290925260409081016000908120338252909252902060020180547fffffffffffffffffffffffffffffffffffffffffffffffffffffffffffffff0016911515919091179055611db681846152ba565b9250848483818110611df1577f4e487b7100000000000000000000000000000000000000000000000000000000600052603260045260246000fd5b905060200201353373ffffffffffffffffffffffffffffffffffffffff167f34fcbac0073d7c3d388e51312faf357774904998eeb8fca628b9e6f65ee1cbf783604051611e4091815260200190565b60405180910390a35080611e538161538b565b91505061177f565b508015611ea357611ea373ffffffffffffffffffffffffffffffffffffffff7f0000000000000000000000000000000000000000000000000000000000000000163383613d61565b50506001805550565b60005474010000000000000000000000000000000000000000900460ff16611f30576040517f08c379a000000000000000000000000000000000000000000000000000000000815260206004820152601460248201527f5061757361626c653a206e6f742070617573656400000000000000000000000060448201526064016107e7565b60035473ffffffffffffffffffffffffffffffffffffffff163314611fb1576040517f08c379a000000000000000000000000000000000000000000000000000000000815260206004820152600960248201527f4e6f742061646d696e000000000000000000000000000000000000000000000060448201526064016107e7565b80612018576040517f08c379a000000000000000000000000000000000000000000000000000000000815260206004820152601560248201527f4d757374206265207375706572696f7220746f2030000000000000000000000060448201526064016107e7565b6007819055600a546040518281527f90eb87c560a0213754ceb3a7fa3012f01acab0a35602c1e1995adf69dabc9d50906020015b60405180910390a250565b60005473ffffffffffffffffffffffffffffffffffffffff1633146120d8576040517f08c379a000000000000000000000000000000000000000000000000000000000815260206004820181905260248201527f4f776e61626c653a2063616c6c6572206973206e6f7420746865206f776e657260448201526064016107e7565b73ffffffffffffffffffffffffffffffffffffffff8116612155576040517f08c379a000000000000000000000000000000000000000000000000000000000815260206004820152601660248201527f43616e6e6f74206265207a65726f20616464726573730000000000000000000060448201526064016107e7565b600380547fffffffffffffffffffffffff00000000000000000000000000000000000000001673ffffffffffffffffffffffffffffffffffffffff83169081179091556040519081527f137b621413925496477d46e5055ac0d56178bdd724ba8bf843afceef18268ba3906020015b60405180910390a150565b60005473ffffffffffffffffffffffffffffffffffffffff163314612250576040517f08c379a000000000000000000000000000000000000000000000000000000000815260206004820181905260248201527f4f776e61626c653a2063616c6c6572206973206e6f7420746865206f776e657260448201526064016107e7565b61225a6000614080565b565b60005474010000000000000000000000000000000000000000900460ff166122e0576040517f08c379a000000000000000000000000000000000000000000000000000000000815260206004820152601460248201527f5061757361626c653a206e6f742070617573656400000000000000000000000060448201526064016107e7565b60035473ffffffffffffffffffffffffffffffffffffffff163314612361576040517f08c379a000000000000000000000000000000000000000000000000000000000815260206004820152600960248201527f4e6f742061646d696e000000000000000000000000000000000000000000000060448201526064016107e7565b6103e88111156123cd576040517f08c379a000000000000000000000000000000000000000000000000000000000815260206004820152601560248201527f54726561737572792066656520746f6f2068696768000000000000000000000060448201526064016107e7565b6008819055600a546040518281527fb1c4ee38d35556741133da7ff9b6f7ab0fa88d0406133126ff128f635490a8579060200161204c565b60005474010000000000000000000000000000000000000000900460ff16612489576040517f08c379a000000000000000000000000000000000000000000000000000000000815260206004820152601460248201527f5061757361626c653a206e6f742070617573656400000000000000000000000060448201526064016107e7565b60035473ffffffffffffffffffffffffffffffffffffffff16331461250a576040517f08c379a000000000000000000000000000000000000000000000000000000000815260206004820152600960248201527f4e6f742061646d696e000000000000000000000000000000000000000000000060448201526064016107e7565b73ffffffffffffffffffffffffffffffffffffffff8116612587576040517f08c379a000000000000000000000000000000000000000000000000000000000815260206004820152601660248201527f43616e6e6f74206265207a65726f20616464726573730000000000000000000060448201526064016107e7565b6000600b55600280547fffffffffffffffffffffffff00000000000000000000000000000000000000001673ffffffffffffffffffffffffffffffffffffffff8316908117909155604080517ffeaf968c000000000000000000000000000000000000000000000000000000008152905163feaf968c9160048082019260a092909190829003018186803b15801561261e57600080fd5b505afa158015612632573d6000803e3d6000fd5b505050506040513d601f19601f8201168201806040525081019061265691906150fd565b505060405173ffffffffffffffffffffffffffffffffffffffff851681527fb3eacd0e351fafdfefdec84e1cd19679b38dbcd63ea7c2c24da17fd2bc3b3c0e935060200191506121c49050565b60005474010000000000000000000000000000000000000000900460ff1615612728576040517f08c379a000000000000000000000000000000000000000000000000000000000815260206004820152601060248201527f5061757361626c653a207061757365640000000000000000000000000000000060448201526064016107e7565b60045473ffffffffffffffffffffffffffffffffffffffff1633146127a9576040517f08c379a000000000000000000000000000000000000000000000000000000000815260206004820152600c60248201527f4e6f74206f70657261746f72000000000000000000000000000000000000000060448201526064016107e7565b6002547501000000000000000000000000000000000000000000900460ff1680156127ee575060025474010000000000000000000000000000000000000000900460ff165b6128a0576040517f08c379a000000000000000000000000000000000000000000000000000000000815260206004820152604660248201527f43616e206f6e6c792072756e2061667465722067656e6573697353746172745260448201527f6f756e6420616e642067656e657369734c6f636b526f756e642069732074726960648201527f6767657265640000000000000000000000000000000000000000000000000000608482015260a4016107e7565b6000806128ab6140f5565b915091508169ffffffffffffffffffff16600b819055506128db600a548369ffffffffffffffffffff16836142ef565b6129006001600a546128ed9190615348565b8369ffffffffffffffffffff1683614548565b6129176001600a546129129190615348565b6147b5565b600a546129259060016152ba565b600a81905561293390614958565b5050565b6000828152600d6020908152604080832073ffffffffffffffffffffffffffffffffffffffff85168452909152808220815160608101909252805483929190829060ff1660018111156129b3577f4e487b7100000000000000000000000000000000000000000000000000000000600052602160045260246000fd5b60018111156129eb577f4e487b7100000000000000000000000000000000000000000000000000000000600052602160045260246000fd5b815260018281015460208084019190915260029384015460ff908116151560409485015260008a8152600e835284902084516101c08101865281548152938101549284019290925293810154928201929092526003820154606082015260048201546080820152600582015460a0820152600682015460c0820152600782015460e082015260088201546101008201526009820154610120820152600a820154610140820152600b820154610160820152600c820154610180820152600d909101549091161580156101a083018190529293509091612acc57508160400151155b8015612ae857506005548160600151612ae591906152ba565b42115b8015612af75750602082015115155b925050505b92915050565b60005474010000000000000000000000000000000000000000900460ff1615612b87576040517f08c379a000000000000000000000000000000000000000000000000000000000815260206004820152601060248201527f5061757361626c653a207061757365640000000000000000000000000000000060448201526064016107e7565b60035473ffffffffffffffffffffffffffffffffffffffff16331480612bc4575060045473ffffffffffffffffffffffffffffffffffffffff1633145b612c2a576040517f08c379a000000000000000000000000000000000000000000000000000000000815260206004820152601260248201527f4e6f74206f70657261746f722f61646d696e000000000000000000000000000060448201526064016107e7565b612c32614b6d565b600a546040517f68b095021b1f40fe513109f513c66692f0b3219aee674a69f4efc57badb8201d90600090a2565b60005474010000000000000000000000000000000000000000900460ff16612ce4576040517f08c379a000000000000000000000000000000000000000000000000000000000815260206004820152601460248201527f5061757361626c653a206e6f742070617573656400000000000000000000000060448201526064016107e7565b60035473ffffffffffffffffffffffffffffffffffffffff163314612d65576040517f08c379a000000000000000000000000000000000000000000000000000000000815260206004820152600960248201527f4e6f742061646d696e000000000000000000000000000000000000000000000060448201526064016107e7565b808210612df4576040517f08c379a000000000000000000000000000000000000000000000000000000000815260206004820152603160248201527f6275666665725365636f6e6473206d75737420626520696e666572696f72207460448201527f6f20696e74657276616c5365636f6e647300000000000000000000000000000060648201526084016107e7565b6005829055600681905560408051838152602081018390527fe60149e0431fec12df63dfab5fce2a9cefe9a4d3df5f41cb626f579ae1f2b91a910160405180910390a15050565b73ffffffffffffffffffffffffffffffffffffffff83166000908152600f602052604081205460609182918490612e73908790615348565b811115612eae5773ffffffffffffffffffffffffffffffffffffffff87166000908152600f6020526040902054612eab908790615348565b90505b60008167ffffffffffffffff811115612ef0577f4e487b7100000000000000000000000000000000000000000000000000000000600052604160045260246000fd5b604051908082528060200260200182016040528015612f19578160200160208202803683370190505b50905060008267ffffffffffffffff811115612f5e577f4e487b7100000000000000000000000000000000000000000000000000000000600052604160045260246000fd5b604051908082528060200260200182016040528015612fc757816020015b60408051606081018252600080825260208083018290529282015282527fffffffffffffffffffffffffffffffffffffffffffffffffffffffffffffffff909201910181612f7c5790505b50905060005b838110156131fd5773ffffffffffffffffffffffffffffffffffffffff8a166000908152600f60205260409020613004828b6152ba565b8154811061303b577f4e487b7100000000000000000000000000000000000000000000000000000000600052603260045260246000fd5b906000526020600020015483828151811061307f577f4e487b7100000000000000000000000000000000000000000000000000000000600052603260045260246000fd5b602002602001018181525050600d60008483815181106130c8577f4e487b7100000000000000000000000000000000000000000000000000000000600052603260045260246000fd5b6020908102919091018101518252818101929092526040908101600090812073ffffffffffffffffffffffffffffffffffffffff8e168252909252908190208151606081019092528054829060ff16600181111561314f577f4e487b7100000000000000000000000000000000000000000000000000000000600052602160045260246000fd5b6001811115613187577f4e487b7100000000000000000000000000000000000000000000000000000000600052602160045260246000fd5b81526001820154602082015260029091015460ff16151560409091015282518390839081106131df577f4e487b7100000000000000000000000000000000000000000000000000000000600052603260045260246000fd5b602002602001018190525080806131f59061538b565b915050612fcd565b50818161320a858b6152ba565b95509550955050505093509350939050565b6000828152600d6020908152604080832073ffffffffffffffffffffffffffffffffffffffff85168452909152808220815160608101909252805483929190829060ff166001811115613298577f4e487b7100000000000000000000000000000000000000000000000000000000600052602160045260246000fd5b60018111156132d0577f4e487b7100000000000000000000000000000000000000000000000000000000600052602160045260246000fd5b815260018281015460208084019190915260029384015460ff908116151560409485015260008a8152600e835284902084516101c081018652815481529381015492840192909252938101549282019290925260038201546060820152600482015460808201819052600583015460a08301819052600684015460c0840152600784015460e084015260088401546101008401526009840154610120840152600a840154610140840152600b840154610160840152600c840154610180840152600d9093015490931615156101a082015292935014156133b557600092505050612afc565b806101a0015180156133ca5750602082015115155b80156133d857508160400151155b8015612af7575080608001518160a0015113801561342f575060008251600181111561342d577f4e487b7100000000000000000000000000000000000000000000000000000000600052602160045260246000fd5b145b80612af7575080608001518160a00151128015612af75750600182516001811115613483577f4e487b7100000000000000000000000000000000000000000000000000000000600052602160045260246000fd5b1495945050505050565b60005473ffffffffffffffffffffffffffffffffffffffff16331461350e576040517f08c379a000000000000000000000000000000000000000000000000000000000815260206004820181905260248201527f4f776e61626c653a2063616c6c6572206973206e6f7420746865206f776e657260448201526064016107e7565b7f000000000000000000000000000000000000000000000000000000000000000073ffffffffffffffffffffffffffffffffffffffff168273ffffffffffffffffffffffffffffffffffffffff1614156135ea576040517f08c379a000000000000000000000000000000000000000000000000000000000815260206004820152602260248201527f43616e6e6f742062652070726564696374696f6e20746f6b656e20616464726560448201527f737300000000000000000000000000000000000000000000000000000000000060648201526084016107e7565b61360b73ffffffffffffffffffffffffffffffffffffffff83163383613d61565b8173ffffffffffffffffffffffffffffffffffffffff167f14f11966a996e0629572e51064726d2057a80fbd34efc066682c06a71dbb6e988260405161365391815260200190565b60405180910390a25050565b60035473ffffffffffffffffffffffffffffffffffffffff1633146136e0576040517f08c379a000000000000000000000000000000000000000000000000000000000815260206004820152600960248201527f4e6f742061646d696e000000000000000000000000000000000000000000000060448201526064016107e7565b73ffffffffffffffffffffffffffffffffffffffff811661375d576040517f08c379a000000000000000000000000000000000000000000000000000000000815260206004820152601660248201527f43616e6e6f74206265207a65726f20616464726573730000000000000000000060448201526064016107e7565b600480547fffffffffffffffffffffffff00000000000000000000000000000000000000001673ffffffffffffffffffffffffffffffffffffffff83169081179091556040519081527fc47d127c07bdd56c5ccba00463ce3bd3c1bca71b4670eea6e5d0c02e4aa156e2906020016121c4565b60005474010000000000000000000000000000000000000000900460ff16613854576040517f08c379a000000000000000000000000000000000000000000000000000000000815260206004820152601460248201527f5061757361626c653a206e6f742070617573656400000000000000000000000060448201526064016107e7565b60035473ffffffffffffffffffffffffffffffffffffffff1633146138d5576040517f08c379a000000000000000000000000000000000000000000000000000000000815260206004820152600960248201527f4e6f742061646d696e000000000000000000000000000000000000000000000060448201526064016107e7565b600c8190556040518181527f93ccaceac092ffb842c46b8718667a13a80e9058dcd0bd403d0b47215b30da07906020016121c4565b60005474010000000000000000000000000000000000000000900460ff161561398f576040517f08c379a000000000000000000000000000000000000000000000000000000000815260206004820152601060248201527f5061757361626c653a207061757365640000000000000000000000000000000060448201526064016107e7565b60045473ffffffffffffffffffffffffffffffffffffffff163314613a10576040517f08c379a000000000000000000000000000000000000000000000000000000000815260206004820152600c60248201527f4e6f74206f70657261746f72000000000000000000000000000000000000000060448201526064016107e7565b6002547501000000000000000000000000000000000000000000900460ff16613abb576040517f08c379a000000000000000000000000000000000000000000000000000000000815260206004820152603160248201527f43616e206f6e6c792072756e2061667465722067656e6573697353746172745260448201527f6f756e642069732074726967676572656400000000000000000000000000000060648201526084016107e7565b60025474010000000000000000000000000000000000000000900460ff1615613b66576040517f08c379a000000000000000000000000000000000000000000000000000000000815260206004820152602260248201527f43616e206f6e6c792072756e2067656e657369734c6f636b526f756e64206f6e60448201527f636500000000000000000000000000000000000000000000000000000000000060648201526084016107e7565b600080613b716140f5565b915091508169ffffffffffffffffffff16600b81905550613ba1600a548369ffffffffffffffffffff16836142ef565b600a54613baf9060016152ba565b600a819055613bbd90614002565b5050600280547fffffffffffffffffffffff00ffffffffffffffffffffffffffffffffffffffff1674010000000000000000000000000000000000000000179055565b600f6020528160005260406000208181548110613c1c57600080fd5b90600052602060002001600091509150505481565b60005473ffffffffffffffffffffffffffffffffffffffff163314613cb2576040517f08c379a000000000000000000000000000000000000000000000000000000000815260206004820181905260248201527f4f776e61626c653a2063616c6c6572206973206e6f7420746865206f776e657260448201526064016107e7565b73ffffffffffffffffffffffffffffffffffffffff8116613d55576040517f08c379a000000000000000000000000000000000000000000000000000000000815260206004820152602660248201527f4f776e61626c653a206e6577206f776e657220697320746865207a65726f206160448201527f646472657373000000000000000000000000000000000000000000000000000060648201526084016107e7565b613d5e81614080565b50565b60405173ffffffffffffffffffffffffffffffffffffffff8316602482015260448101829052613e359084907fa9059cbb00000000000000000000000000000000000000000000000000000000906064015b604080517fffffffffffffffffffffffffffffffffffffffffffffffffffffffffffffffe08184030181529190526020810180517bffffffffffffffffffffffffffffffffffffffffffffffffffffffff167fffffffff0000000000000000000000000000000000000000000000000000000090931692909217909152614c59565b505050565b6000818152600e602052604081206001015415801590613e6a57506000828152600e602052604090206002015415155b8015613e8657506000828152600e602052604090206001015442115b8015612afc5750506000908152600e6020526040902060020154421090565b60405173ffffffffffffffffffffffffffffffffffffffff80851660248301528316604482015260648101829052613f039085907f23b872dd0000000000000000000000000000000000000000000000000000000090608401613db3565b50505050565b60005474010000000000000000000000000000000000000000900460ff16613f8d576040517f08c379a000000000000000000000000000000000000000000000000000000000815260206004820152601460248201527f5061757361626c653a206e6f742070617573656400000000000000000000000060448201526064016107e7565b600080547fffffffffffffffffffffff00ffffffffffffffffffffffffffffffffffffffff1690557f5db9ee0a495bf2e6ff9c91a7834c1ba4fdd244a5e8aa4e537bd38aeae4b073aa335b60405173ffffffffffffffffffffffffffffffffffffffff909116815260200160405180910390a1565b6000818152600e602052604090204260018201819055600654614024916152ba565b6002808301919091556006546140399161530b565b61404390426152ba565b600382015581815560006008820181905560405183917f939f42374aa9bf1d8d8cd56d8a9110cb040cd8dfeae44080c6fcf2645e51b45291a25050565b6000805473ffffffffffffffffffffffffffffffffffffffff8381167fffffffffffffffffffffffff0000000000000000000000000000000000000000831681178455604051919092169283917f8be0079c531659141344cd1fd0a4f28419497f9722a3daafe3b4186f6b6457e09190a35050565b6000806000600c544261410891906152ba565b90506000806000600260009054906101000a900473ffffffffffffffffffffffffffffffffffffffff1673ffffffffffffffffffffffffffffffffffffffff1663feaf968c6040518163ffffffff1660e01b815260040160a06040518083038186803b15801561417757600080fd5b505afa15801561418b573d6000803e3d6000fd5b505050506040513d601f19601f820116820180604052508101906141af91906150fd565b509350509250925083811115614247576040517f08c379a000000000000000000000000000000000000000000000000000000000815260206004820152602e60248201527f4f7261636c6520757064617465206578636565646564206d61782074696d657360448201527f74616d7020616c6c6f77616e636500000000000000000000000000000000000060648201526084016107e7565b600b548369ffffffffffffffffffff16116142e4576040517f08c379a000000000000000000000000000000000000000000000000000000000815260206004820152603d60248201527f4f7261636c652075706461746520726f756e644964206d757374206265206c6160448201527f72676572207468616e206f7261636c654c6174657374526f756e64496400000060648201526084016107e7565b509094909350915050565b6000838152600e602052604090206001015461438d576040517f08c379a000000000000000000000000000000000000000000000000000000000815260206004820152602b60248201527f43616e206f6e6c79206c6f636b20726f756e6420616674657220726f756e642060448201527f686173207374617274656400000000000000000000000000000000000000000060648201526084016107e7565b6000838152600e602052604090206002015442101561442e576040517f08c379a000000000000000000000000000000000000000000000000000000000815260206004820152602760248201527f43616e206f6e6c79206c6f636b20726f756e64206166746572206c6f636b546960448201527f6d657374616d700000000000000000000000000000000000000000000000000060648201526084016107e7565b6005546000848152600e602052604090206002015461444d91906152ba565b4211156144dc576040517f08c379a000000000000000000000000000000000000000000000000000000000815260206004820152602860248201527f43616e206f6e6c79206c6f636b20726f756e642077697468696e20627566666560448201527f725365636f6e647300000000000000000000000000000000000000000000000060648201526084016107e7565b6000838152600e602052604090206006546144f790426152ba565b60038201556004810182905560068101839055604051828152839085907f482e76a65b448a42deef26e99e58fb20c85e26f075defff8df6aa80459b39006906020015b60405180910390a350505050565b6000838152600e60205260409020600201546145e6576040517f08c379a000000000000000000000000000000000000000000000000000000000815260206004820152602960248201527f43616e206f6e6c7920656e6420726f756e6420616674657220726f756e64206860448201527f6173206c6f636b6564000000000000000000000000000000000000000000000060648201526084016107e7565b6000838152600e6020526040902060030154421015614687576040517f08c379a000000000000000000000000000000000000000000000000000000000815260206004820152602760248201527f43616e206f6e6c7920656e6420726f756e6420616674657220636c6f7365546960448201527f6d657374616d700000000000000000000000000000000000000000000000000060648201526084016107e7565b6005546000848152600e60205260409020600301546146a691906152ba565b421115614735576040517f08c379a000000000000000000000000000000000000000000000000000000000815260206004820152602760248201527f43616e206f6e6c7920656e6420726f756e642077697468696e2062756666657260448201527f5365636f6e64730000000000000000000000000000000000000000000000000060648201526084016107e7565b6000838152600e6020526040908190206005810183905560078101849055600d810180547fffffffffffffffffffffffffffffffffffffffffffffffffffffffffffffff001660011790559051839085907fb6ff1fe915db84788cbbbc017f0d2bef9485fad9fd0bd8ce9340fde0d8410dd89061453a9086815260200190565b6000818152600e60205260409020600b01541580156147e357506000818152600e60205260409020600c0154155b614849576040517f08c379a000000000000000000000000000000000000000000000000000000000815260206004820152601260248201527f526577617264732063616c63756c61746564000000000000000000000000000060448201526064016107e7565b6000818152600e60205260408120600481015460058201549192918291829113156148ad5783600901549250612710600854856008015461488a919061530b565b61489491906152d2565b91508184600801546148a69190615348565b90506148e6565b8360040154846005015412156148d95783600a01549250612710600854856008015461488a919061530b565b5050506008810154600090815b600b8401839055600c8401819055600980548391906000906149099084906152ba565b9091555050604080518481526020810183905290810183905285907f6dfdfcb09c8804d0058826cd2539f1acfbe3cb887c9be03d928035bce0f1a58d9060600160405180910390a25050505050565b6002547501000000000000000000000000000000000000000000900460ff16614a03576040517f08c379a000000000000000000000000000000000000000000000000000000000815260206004820152603160248201527f43616e206f6e6c792072756e2061667465722067656e6573697353746172745260448201527f6f756e642069732074726967676572656400000000000000000000000000000060648201526084016107e7565b600e6000614a12600284615348565b81526020019081526020016000206003015460001415614ab4576040517f08c379a000000000000000000000000000000000000000000000000000000000815260206004820152602e60248201527f43616e206f6e6c7920737461727420726f756e6420616674657220726f756e6460448201527f206e2d322068617320656e64656400000000000000000000000000000000000060648201526084016107e7565b600e6000614ac3600284615348565b815260200190815260200160002060030154421015614b64576040517f08c379a000000000000000000000000000000000000000000000000000000000815260206004820152603760248201527f43616e206f6e6c79207374617274206e657720726f756e64206166746572207260448201527f6f756e64206e2d3220636c6f736554696d657374616d7000000000000000000060648201526084016107e7565b613d5e81614002565b60005474010000000000000000000000000000000000000000900460ff1615614bf2576040517f08c379a000000000000000000000000000000000000000000000000000000000815260206004820152601060248201527f5061757361626c653a207061757365640000000000000000000000000000000060448201526064016107e7565b600080547fffffffffffffffffffffff00ffffffffffffffffffffffffffffffffffffffff16740100000000000000000000000000000000000000001790557f62e78cea01bee320cd4e420270b5ea74000d11b0c9f74754ebdbfc544b05a258613fd83390565b6000614cbb826040518060400160405280602081526020017f5361666545524332303a206c6f772d6c6576656c2063616c6c206661696c65648152508573ffffffffffffffffffffffffffffffffffffffff16614d659092919063ffffffff16565b805190915015613e355780806020019051810190614cd99190615079565b613e35576040517f08c379a000000000000000000000000000000000000000000000000000000000815260206004820152602a60248201527f5361666545524332303a204552433230206f7065726174696f6e20646964206e60448201527f6f7420737563636565640000000000000000000000000000000000000000000060648201526084016107e7565b6060614d748484600085614d7e565b90505b9392505050565b606082471015614e10576040517f08c379a000000000000000000000000000000000000000000000000000000000815260206004820152602660248201527f416464726573733a20696e73756666696369656e742062616c616e636520666f60448201527f722063616c6c000000000000000000000000000000000000000000000000000060648201526084016107e7565b843b614e78576040517f08c379a000000000000000000000000000000000000000000000000000000000815260206004820152601d60248201527f416464726573733a2063616c6c20746f206e6f6e2d636f6e747261637400000060448201526064016107e7565b6000808673ffffffffffffffffffffffffffffffffffffffff168587604051614ea19190615187565b60006040518083038185875af1925050503d8060008114614ede576040519150601f19603f3d011682016040523d82523d6000602084013e614ee3565b606091505b5091509150614ef3828286614efe565b979650505050505050565b60608315614f0d575081614d77565b825115614f1d5782518084602001fd5b816040517f08c379a00000000000000000000000000000000000000000000000000000000081526004016107e79190615269565b803573ffffffffffffffffffffffffffffffffffffffff81168114614f7557600080fd5b919050565b805169ffffffffffffffffffff81168114614f7557600080fd5b600060208284031215614fa5578081fd5b614d7782614f51565b60008060408385031215614fc0578081fd5b614fc983614f51565b946020939093013593505050565b600080600060608486031215614feb578081fd5b614ff484614f51565b95602085013595506040909401359392505050565b6000806020838503121561501b578182fd5b823567ffffffffffffffff80821115615032578384fd5b818501915085601f830112615045578384fd5b813581811115615053578485fd5b8660208260051b8501011115615067578485fd5b60209290920196919550909350505050565b60006020828403121561508a578081fd5b81518015158114614d77578182fd5b6000602082840312156150aa578081fd5b5035919050565b600080604083850312156150c3578182fd5b823591506150d360208401614f51565b90509250929050565b600080604083850312156150ee578182fd5b50508035926020909101359150565b600080600080600060a08688031215615114578081fd5b61511d86614f7a565b945060208601519350604086015192506060860151915061514060808701614f7a565b90509295509295909350565b60028110615183577f4e487b7100000000000000000000000000000000000000000000000000000000600052602160045260246000fd5b9052565b6000825161519981846020870161535f565b9190910192915050565b60608082528451828201819052600091906020906080850190828901855b828110156151dd578151845292840192908401906001016151c1565b50505084810382860152865180825287830191830190855b8181101561522e57835161520a84825161514c565b808601518487015260409081015115159084015292840192918501916001016151f5565b505080945050505050826040830152949350505050565b60608101615253828661514c565b8360208301528215156040830152949350505050565b602081526000825180602084015261528881604085016020870161535f565b601f017fffffffffffffffffffffffffffffffffffffffffffffffffffffffffffffffe0169190910160400192915050565b600082198211156152cd576152cd6153c4565b500190565b600082615306577f4e487b710000000000000000000000000000000000000000000000000000000081526012600452602481fd5b500490565b6000817fffffffffffffffffffffffffffffffffffffffffffffffffffffffffffffffff0483118215151615615343576153436153c4565b500290565b60008282101561535a5761535a6153c4565b500390565b60005b8381101561537a578181015183820152602001615362565b83811115613f035750506000910152565b60007fffffffffffffffffffffffffffffffffffffffffffffffffffffffffffffffff8214156153bd576153bd6153c4565b5060010190565b7f4e487b7100000000000000000000000000000000000000000000000000000000600052601160045260246000fdfea2646970667358221220b5c4638b4931499ecc62666bb4d4601b86293e927630d40c53c062326926424964736f6c63430008040033",
  "linkReferences": {},
  "deployedLinkReferences": {}
}