{
  "_format": "hh-sol-artifact-1",
  "contractName": "TimeSeriesViewer",
  "sourceName": "contracts/utils/TimeSeriesViewer.sol",
  "abi": [
    {
      "inputs": [],
      "stateMutability": "nonpayable",
      "type": "constructor"
    },
    {
      "inputs": [
        {
          "internalType": "address",
          "name": "aggregator",
          "type": "address"
        },
        {
          "internalType": "uint80",
          "name": "firstRoundId",
          "type": "uint80"
        },
        {
          "internalType": "uint80",
          "name": "lastRoundId",
          "type": "uint80"
        }
      ],
      "name": "viewHistoricalPrices",
      "outputs": [
        {
          "internalType": "uint80[]",
          "name": "roundIds",
          "type": "uint80[]"
        },
        {
          "internalType": "int256[]",
          "name": "prices",
          "type": "int256[]"
        },
        {
          "internalType": "uint256[]",
          "name": "timestamps",
          "type": "uint256[]"
        }
      ],
      "stateMutability": "view",
      "type": "function"
    }
  ],
  "bytecode": "0x608060405234801561001057600080fd5b50610640806100206000396000f3fe608060405234801561001057600080fd5b506004361061002b5760003560e01c8063efa4f4bd14610030575b600080fd5b61004361003e3660046103b1565b61005b565b604051610052939291906104a4565b60405180910390f35b60608080600061006b868661056b565b61007690600161053d565b69ffffffffffffffffffff1690508067ffffffffffffffff8111156100c4577f4e487b7100000000000000000000000000000000000000000000000000000000600052604160045260246000fd5b6040519080825280602002602001820160405280156100ed578160200160208202803683370190505b5093508067ffffffffffffffff811115610130577f4e487b7100000000000000000000000000000000000000000000000000000000600052604160045260246000fd5b604051908082528060200260200182016040528015610159578160200160208202803683370190505b5092508067ffffffffffffffff81111561019c577f4e487b7100000000000000000000000000000000000000000000000000000000600052604160045260246000fd5b6040519080825280602002602001820160405280156101c5578160200160208202803683370190505b509150855b8569ffffffffffffffffffff168169ffffffffffffffffffff16116103a6576040517f9a6fc8f500000000000000000000000000000000000000000000000000000000815269ffffffffffffffffffff8216600482015273ffffffffffffffffffffffffffffffffffffffff891690639a6fc8f59060240160a06040518083038186803b15801561025a57600080fd5b505afa15801561026e573d6000803e3d6000fd5b505050506040513d601f19601f820116820180604052508101906102929190610413565b90915050878469ffffffffffffffffffff16815181106102db577f4e487b7100000000000000000000000000000000000000000000000000000000600052603260045260246000fd5b60200260200101878569ffffffffffffffffffff1681518110610327577f4e487b7100000000000000000000000000000000000000000000000000000000600052603260045260246000fd5b60200260200101878669ffffffffffffffffffff1681518110610373577f4e487b7100000000000000000000000000000000000000000000000000000000600052603260045260246000fd5b602090810291909101019290925291905269ffffffffffffffffffff90911690528061039e81610596565b9150506101ca565b505093509350939050565b6000806000606084860312156103c5578283fd5b833573ffffffffffffffffffffffffffffffffffffffff811681146103e8578384fd5b925060208401356103f8816105ef565b91506040840135610408816105ef565b809150509250925092565b600080600080600060a0868803121561042a578081fd5b8551610435816105ef565b80955050602086015193506040860151925060608601519150608086015161045c816105ef565b809150509295509295909350565b6000815180845260208085019450808401835b838110156104995781518752958201959082019060010161047d565b509495945050505050565b606080825284519082018190526000906020906080840190828801845b828110156104e957815169ffffffffffffffffffff16845292840192908401906001016104c1565b50505083810382850152855180825286830191830190845b8181101561051d57835183529284019291840191600101610501565b50508481036040860152610531818761046a565b98975050505050505050565b600069ffffffffffffffffffff808316818516808303821115610562576105626105c0565b01949350505050565b600069ffffffffffffffffffff8381169083168181101561058e5761058e6105c0565b039392505050565b600069ffffffffffffffffffff808316818114156105b6576105b66105c0565b6001019392505050565b7f4e487b7100000000000000000000000000000000000000000000000000000000600052601160045260246000fd5b69ffffffffffffffffffff8116811461060757600080fd5b5056fea26469706673582212202b1676f385f957cc9d6835434aa0c8acebb5ad92188eca18965c4f4098beea8464736f6c63430008040033",
  "linkReferences": {},
  "deployedLinkReferences": {}
}